:020000040800F2
:10000000E008002029020008AF1D0008611900085F
:10001000AD1D00081F04000819240008000000009E
:10002000000000000000000000000000F91E0008B1
:10003000DD04000800000000B11D0008FB1E0008E0
:10004000430200084302000843020008430200087C
:10005000430200084302000843020008430200086C
:10006000430200084302000843020008430200085C
:10007000430200084302000843020008430200084C
:10008000430200084302000843020008430200083C
:10009000430200084302000843020008430200082C
:1000A000430200084302000843020008430200081C
:1000B000430200084302000843020008430200080C
:1000C00043020008430200084302000843020008FC
:1000D00043020008BD230008430200084302000851
:1000E00043020008430200084302000843020008DC
:1000F00043020008430200084302000843020008CC
:1001000043020008430200084302000843020008BB
:1001100043020008430200084302000843020008AB
:1001200043020008430200082104000843020008BB
:10013000430200084302000843020008430200088B
:10014000430200084302000843020008430200087B
:1001500043020008430200082D040008430200087F
:10016000430200084302000843020008430200085B
:100170004302000843020008430200080000000098
:10018000430200084302000800F002F800F03CF8C7
:100190000AA090E8000C82448344AAF10107DA45E2
:1001A00001D100F031F8AFF2090EBAE80F0013F0F8
:1001B000010F18BFFB1A43F001031847EC9300002E
:1001C0000C940000103A24BF78C878C1FAD85207BE
:1001D00024BF30C830C144BF04680C6070470000C1
:1001E0000023002400250026103A28BF78C1FBD840
:1001F000520728BF30C148BF0B6070471FB502F0DF
:100200007DF91FBD10B510BD00F0CFF81146FFF706
:10021000F5FF02F013F900F0EDF803B4FFF7F2FF79
:1002200003BC00F0F5F80000094880470948004782
:10023000FEE7FEE7FEE7FEE7FEE7FEE7FEE7FEE796
:10024000FEE7FEE704480549054A064B70470000F3
:10025000991F000889010008E0020020E008002042
:10026000E0040020E004002053EA020C00F0698062
:100270002DE9F04B4FF00006002B1FBFB3FA83F5BA
:1002800003FA05F424FA05F65E4012BF1643B2FAEB
:1002900082F502FA05F4C5F120051EBF22FA05FC1D
:1002A00044EA0C04203556EA044C4FEA144418BFC3
:1002B000641C4FF000084FF00009904271EB030CF2
:1002C00039D3002919BFB1FA81F701FA07F6B0FA5C
:1002D00080F700FA07F6C7F120071EBF20FA07FCD7
:1002E00046EA0C062037B6FBF4FCA7EB0507103FE7
:1002F00007F01F0BCBF120060CFA0BFB2CFA06F6CD
:1003000044BFB3460026202FA4BF5E464FF0000B2B
:100310005BEA060C08BF4FF0010B19EB0B09ABFBB6
:10032000027C48EB0608C01B06FB02CC0BFB03CC8F
:1003300071EB0C01C1E70B46024641464846BDE859
:10034000F08B13B54FF000004FF00001AFF30080C9
:10035000BDE81C4070474FF0000200B513469446BC
:100360009646203922BFA0E80C50A0E80C50B1F10D
:100370002001BFF4F7AF090728BFA0E80C5048BF21
:100380000CC05DF804EB890028BF40F8042B08BFBF
:10039000704748BF20F8022B11F0804F18BF00F8BB
:1003A000012B7047704770477047754600F02CF876
:1003B000AE4605006946534620F00700854618B052
:1003C00020B5FFF73FFFBDE820404FF000064FF09B
:1003D00000074FF000084FF0000B21F00701AC467A
:1003E000ACE8C009ACE8C009ACE8C009ACE8C00999
:1003F0008D46704710B50446AFF300802046BDE837
:100400001040FFF70ABF0000004870477C02002040
:1004100001491820ABBEFEE7260002007047FEE748
:10042000014800F0BDB80000BC000020014800F009
:10043000B7B800001C01002001681823CAB2103AA6
:10044000B2FBF3F2054B6FF30901032A9B5CC36512
:1004500000D9091D8165084670470000869500088F
:1004600010B5014600208B698A6A4FF0C07453B101
:10047000B3F5005F15D072B1012A0CD0022A0AD060
:10048000032A09D104E01AB1012A06D0022A03D1B5
:10049000C96AC90100D5012010BDC96AA142FAD0BC
:1004A00010BD002AF7D0012AF2D0022AF3D0032A85
:1004B000F3D010BD30B50468256825F4802525608B
:1004C000046863608368402B036803D09960006808
:1004D000C26030BD9A600068C16030BD704772B6BE
:1004E000FEE72DE9F0410446876D00F0DBFA064691
:1004F00094F835000025022806D08020606584F835
:1005000034500120BDE8F0812068016821F0160117
:1005100001602068416921F080014161206C08B9C7
:10052000A06C20B12068016821F0080101602068FA
:10053000016821F0010101600CE000F0B3FA801BBA
:10054000052807D920206065032084F8350084F849
:100550003450D7E720680068C007EED194F85C10EB
:100560003F208840B860012084F8350084F834507A
:100570000020C7E790F83510022903D0802141659B
:1005800001207047052180F835100068016821F0CE
:10059000010101600020704790F8350070470000AD
:1005A0002DE9F84304464FF00009CDF80090634868
:1005B0004FF41651A56D0068B0FBF1F72E6894F862
:1005C0005C10082000FA01F131420FD021680A685E
:1005D00052070BD50A6822F004020A6094F85C10F6
:1005E0008840A860606D40F00100606594F85C1080
:1005F0004FF0010808FA01F0304208D0216849693B
:10060000090604D5A860606D40F00200606594F8AA
:100610005C1004208840304208D0216809688907AE
:1006200004D5A860606D40F00400606594F85C102B
:1006300010208840304218D021680968090714D575
:10064000A86020680168490304D50068000308D544
:10065000A16C07E00168C90503D4016821F0080115
:100660000160216C09B12046884794F85C10202075
:100670008840304231D021680968C9062DD5A8606C
:1006800094F8350005282068016806D0490347D54D
:10069000006800031DD4616C1CE021F016010160AC
:1006A0002068416921F080014161206C08B9A06C8B
:1006B00020B12068016821F00801016094F85C1005
:1006C0003F208840A86084F8358084F83490216DFC
:1006D0001FE0E16B09B120468847606D00282BD0F0
:1006E000606DC00714D0052084F8350020680168CB
:1006F00021F0010101600098401C0090B84203D82D
:1007000020680068C007F6D184F8358084F83490FA
:10071000E16C002910D001B02046BDE8F043084745
:100720000168C905D5D4016821F01001016084F881
:10073000358084F83490CCE7BDE8F88318000020B9
:100740002DE9F041044600F0ADF906465CB1022007
:1007500084F83500002584F834502068016821F0C1
:10076000010101600DE00120BDE8F08100F09AF97F
:10077000801B052805D920206065032084F83500FA
:10078000F2E720680068C007F0D1226811682048AD
:100790000140D4E901031843D4E903363343184335
:1007A00063691843A3691843E3691843236A18432C
:1007B0000843616A042903D1D4E90B1319430843A0
:1007C000106020684069666A20F0070130460E43D9
:1007D000012704280CD1A06A0643E06A40B12046F4
:1007E000FFF73EFE20B14020606584F83570BAE71F
:1007F000206846612046FFF71FFE94F85C203F21E9
:1008000091408160656584F835700020ACE7000098
:100810003F8010F02DE9F0410446866D90F83400D9
:10082000002501280DD0012084F8340094F835709B
:100830000020012F07D084F8340002252846BDE8A7
:10084000F0810220FBE7022784F8357060652046BE
:10085000FFF730FE94F85C103F208840B0602068BD
:10086000016841F016010160206C20B12068016828
:1008700041F0080101602068016841F00101016058
:10088000DCE7000070B5044600F00CF90546601C7A
:1008900002D004480078044400F004F9401BA04250
:1008A000FAD370BD0C0000202DE9F84FDFF8BCA191
:1008B0000022012503264FF00F090AF1040BAAF1CB
:1008C000040E00BF0B6805FA02F42340A34270D166
:1008D0000F7907F00307012F01D0022F16D1876887
:1008E0004FEA420806FA08FC27EA0C07D1F80CC0C8
:1008F0000CFA08FC4CEA070CC0F808C04768A7438C
:100900000C79C4F3001494403C4344600C79E443F4
:10091000A4070AD0C4684FEA420C06FA0CF7BC439D
:100920008F6807FA0CF72743C7600C7904F00304BB
:10093000022C12D1D40800EB840CDCF820405707BD
:10094000FF0E09FA07F824EA0804D1F8108008FA23
:1009500007F848EA0408CCF8208004684FEA420C03
:1009600006FA0CF7BC430F7907F0030707FA0CF7F8
:10097000274307604C6814F4403F70D03C4C276814
:1009800047F480472760246822F0030704F480447A
:100990000094384C07EB040CDCF8084897074FEA42
:1009A000177809FA08F7BC43334FB84202D1002741
:1009B00024E054E0314FB84201D101271EE0304F0E
:1009C000B84201D1022719E02E4FB84201D10327C6
:1009D00014E02D4FB84201D104270FE02B4FB8424D
:1009E00001D105270AE02A4FB84201D1062705E0C8
:1009F000284FB84201D1072700E0082707FA08F777
:100A00002743CCF80878DAF800405746D1F804C0FC
:100A10009C435FEACC2C00D51C433C60DBF80040D3
:100A20005F46D1F804C09C435FEA8C2C00D51C4380
:100A30003C60DEF800407746D1F804C09C435FEA92
:100A40008C3C00D51C433C60084F083F3C68D1F803
:100A500004C09C435FEACC3C00D51C433C60521C64
:100A6000102AFFF42FAFBDE8F88F0000083C0140CA
:100A700044380240003001400000024000040240BF
:100A800000080240000C0240001002400014024026
:100A900000180240001C02400AB18161704709043D
:100AA000FBE7000001488068704700000C00002050
:100AB0000248816802781144816070470C00002070
:100AC0000B4810B5016841F400710160016841F400
:100AD00080610160016841F480710160032000F0D1
:100AE0006FF80F2000F006F800F024F8002010BD89
:100AF000003C024070B50D4D04464FF47A712878E1
:100B0000B1FBF0F00A490968B1FBF0F000F094FC89
:100B100048B9102C07D200222146501E00F030F8B0
:100B200000206C6070BD012070BD00000C00002032
:100B3000180000200A4808B5016841F480410160AE
:100B4000006800F4804000900548001F016841F0F3
:100B500080510160006800F08050009008BD0000E6
:100B600044380240002809DB00F01F0201219140B7
:100B70004009800000F1E020C0F80011704700003B
:100B8000F0B40E4B1B680C46C3F30223C3F10705F8
:100B9000042D00D90425191D072901D2002300E0E6
:100BA000DB1E012606FA05F1491E214099409E40B0
:100BB000761E16403143F0BC01F02FBC0CED00E076
:100BC000064900F0070208684FF6FF03184040EAA4
:100BD0000220034A10430860704700000CED00E05B
:100BE0000000FA052DE9F0470E46050065D0DFF854
:100BF0001481D8F80000F7B200F00700B04207D225
:100C000088F80070D8F8000000F00700B04254D116
:100C100028683D4C810712D5400703D5206840F471
:100C2000E05020602878000703D5206840F4604039
:100C300020602068A96820F0F00008432060287830
:100C4000C0072DD0304968680839012812D0022821
:100C500013D0032811D00968890700292DDA2168EB
:100C600021F0030101432160FFF71CFF814641F29F
:100C7000883A0EE009688903EFE709688901ECE723
:100C8000FFF710FFA0EB0901514502D90320BDE891
:100C9000F0872068696800F00C00B0EB810FEFD19D
:100CA000D8F80010404601F00701B14207D907709B
:100CB000006800F00700B04201D00120E7E7287883
:100CC000400705D52068E96820F4E050084320601B
:100CD0002878000706D52068296920F4604040EA9A
:100CE000C100206000F038F82168084AC1F3031100
:100CF000515CC8400649086006480068FFF7FAFEE4
:100D00000020C4E7003C0240083802408E950008ED
:100D100018000020100000200448054900680968F8
:100D2000044AC1F38221515CC8407047180000207A
:100D3000083802409E950008044805490068096883
:100D4000044AC1F34231515CC8407047180000208A
:100D5000083802409E950008154810B5006810F04C
:100D60000C02144813D04110042A0FD0082A0ED1C7
:100D70000F4C241F2268236802F03F025B0207D554
:100D80002068C0F38810A0FB010106E0084610BDF2
:100D90002168C1F38811A1FB00010023FFF764FA69
:100DA0002168C1F30141491C4900B0FBF1F010BDBD
:100DB000083802400024F4002DE9F84F04006ED0FA
:100DC0002078DFF84C93C007A9F104054AD009F157
:100DD00004000168C1F38101012908D00068C0F353
:100DE000810002280AD1D9F80000400206D52868FF
:100DF000800337D560680028E1D033E06068B0F543
:100E0000803F10D0B0F5A02F286810D020F480309B
:100E10002860286820F4802028606068A8B1FFF767
:100E200041FE06460DE0286840F48030F4E740F4C7
:100E300080202860F7E700BFFFF734FE801B64289E
:100E400073D828688003F7D50CE0FFF72BFE064621
:100E500005E000BFFFF726FE801B6428F0D8286855
:100E60008003F7D42078DFF8AC8280074FF0000AC7
:100E70003ED5A748001D016811F00C0F08D000688E
:100E8000C0F3810002280BD1D9F80000400207D43A
:100E90002868800716D5E068012800D112E033E108
:100EA000E068B8B10120C8F80000FFF7FBFD064676
:100EB00005E000BFFFF7F6FD801B0228C0D82868B8
:100EC0008007F7D52868216920F0F80040EAC100C2
:100ED00028600DE0C8F800A0FFF7E4FD064604E036
:100EE000FFF7E0FD801B02281FD828688007F7D491
:100EF0002078000722D5864F87486169703771B125
:100F000001210160FFF7CEFD064604E0FFF7CAFDB0
:100F1000801B022809D838688007F7D50EE0C0F892
:100F200000A0FFF7BFFD064605E082E0FFF7BAFD2F
:100F3000801B02287DD838688007F7D420784007C6
:100F400068D5DFF8CCB100270BF13C0BDBF80000D3
:100F5000C0000BD4DBF8001041F08051CBF800103A
:100F6000DBF80000012700F0805000906B4E3068E5
:100F7000C00510D4306840F480703060FFF792FDF7
:100F8000009005E0FFF78EFD0099401A022850D826
:100F90003068C005F6D55E4EA0686C3601280FD0CB
:100FA0000528306810D020F001003060306820F053
:100FB00004003060A068B8B1FFF774FD00900FE046
:100FC000306840F00100F4E740F004003060F7E7DB
:100FD000FFF768FD0099411A41F28830814266D8D6
:100FE00030688007F4D50EE0FFF75CFD009007E065
:100FF000FFF758FD0099411A41F28830814256D8D6
:1010000030688007F4D42FB1DBF8001021F0805154
:10101000CBF80010A069C8B33D49091D0968C1F3A8
:10102000810102294AD00228504607D0C8F8600042
:1010300000E03CE0FFF736FD04463BE04746C8F8D9
:101040006000FFF72FFD064605E000BFFFF72AFD11
:10105000801B02282BD828688001F7D4D4E9070127
:101060000843A16A2E4A490802EB0141626A41EA3B
:101070008211084394F82C1040EA0161C9F800106D
:1010800001203866FFF70EFD044606E03EE000BF93
:10109000FFF708FD001B022809D828688001F7D552
:1010A00034E000BFFFF7FEFC001B022802D903203A
:1010B000BDE8F88F28688001F4D427E00128F7D034
:1010C000D9F80000E26900F4800191421CD1226A43
:1010D00000F03F01914217D147F6C071626A0140AA
:1010E000B1EB821F10D1A26A4FF0FF3300F4403100
:1010F00003EB5202B1EB024F06D194F82C1000F032
:101100007060B0EB016F01D00120D1E70020CFE784
:101110000438024000004742800E47420070004001
:101120000000FFFF70B5040009D0606A002540B1DF
:1011300025616561A56294F8510040B10CE0012081
:1011400070BD6068B0F5827FF4D0E561F2E784F8A5
:101150005050204600F044F8022084F851002068E6
:10116000016821F040010160A088218900F48270AB
:1011700001F404410843A18901F400610843217C82
:1011800001F002010843217D01F001010843218B98
:1011900001F400710843217F01F03801084394F8FD
:1011A000201001F080010843218D01F40051084313
:1011B00021680860A069042101EA104094F8241015
:1011C00001F010010843216848602068C16921F4DA
:1011D0000061C1616565012084F85100002070BD87
:1011E00010B586B0044614216846FFF7B4F81349D9
:1011F0002068884220D112480021026842F48052BF
:101200000260006800F4805005900D4814380268B0
:1012100042F001020260006800F001000590A02089
:1012200000900220CDE901010320039005200490E5
:1012300069460448FFF738FB06B010BD0030014096
:1012400044380240000002402DE9FF4F81B01D46A6
:10125000934604464FF001090E9EFFF723FC074614
:1012600094F851006168012806D0B1F5827F3CD125
:10127000A168C9BB042838D10298002871D0BBF1FD
:10128000000FFBD0002DF9D094F8500001282CD08D
:101290004FF0010A84F850A094F85100042802D0BD
:1012A000052084F851004FF00008C4F85480C4F8B9
:1012B00038B0E587A58702992163E586A586C4F83D
:1012C0004080C4F8448020680168490603D401685E
:1012D00041F040010160E068B0F5006F606808D03F
:1012E000F0B3012D49D081E0FFE7022005B0BDE851
:1012F000F08F08B1012D39D1206B21680088C860BA
:10130000206B801C2063E08E401EE0862EE020686B
:10131000816889070FD5E18E69B1B9F1010F0AD152
:10132000216B0988C160206B801C2063E08E401E09
:10133000E0864FF0000920688168C9070CD0E18F72
:1013400051B1C068A16B0880A06B801CA063E08FC6
:10135000401EE0874FF00109FFF7A4FBC01B01E02E
:101360000BE067E0B04201D3701C50D1E08E002842
:10137000CDD1E08F0028CAD13EE0206B21680078F3
:101380000873206B401C2063E08E401EE0862DE039
:101390002068816889070FD5E18E69B1B9F1010F25
:1013A0000AD1216B09780173206B401C2063E08E09
:1013B000401EE0864FF0000920688168C9070CD004
:1013C000E18F51B1C068A16B0870A06B401CA06395
:1013D000E08F401EE0874FF00109FFF763FBC01B61
:1013E000B04202D3701C01D011E086B1E08E00281B
:1013F000CED1E08F0028CBD13A463146204600F0CE
:10140000D9FC50B12020606584F8508012E084F847
:1014100051A084F85080032068E7A06818B92068BC
:10142000C1688068009084F851A084F85080606D95
:101430000028F1D0012059E710B5401EB0F1807F9F
:1014400001D3012010BD4FF0E02460610F2160172F
:1014500000F0E3FF0020A06107202061002010BD04
:1014600038B5044690F84200202801D0022038BD4B
:1014700061B15AB10120206300206063204600F072
:1014800055FF0028F3D1216B012901D0012038BD7F
:1014900021680A684968009121680C3151E8002FE1
:1014A00042F0100241E80023002BF5D138BD70470F
:1014B00010B504460068406994F84110C0F3C010AC
:1014C000212911D180B12068143050E8001F21F08B
:1014D000800140E80012002AF5D1A06B08B1FFF7A7
:1014E00000F8204600F02CFE2068406994F8421075
:1014F000C0F38010222911D180B12068143050E847
:10150000001F21F0400140E80012002AF5D1E06BF5
:1015100008B1FEF7E6FF204600F0EBFD002010BD0D
:1015200070470000F8B5016804460868CA684B694E
:1015300010F00F0F4FF0000559D003F0010602F430
:101540009077374365D0C10705D0D10503D5616CCD
:1015500041F001016164410705D5D90703D0616CF1
:1015600041F002016164810705D5D90703D0616CA0
:1015700041F004016164010707D502F02001314305
:1015800003D0616C41F008016164616C00293AD0BC
:10159000800604D5900602D5204600F0DFFD2068C5
:1015A0004069616CC0F38010090700D460B3204625
:1015B00000F09FFD20684069400621D52068143066
:1015C00050E8001F21F0400140E80012002AF5D148
:1015D000E06BA8B16E490165E06BFEF7CBFF002818
:1015E00011D0E06B016D01B0BDE8F0400847830603
:1015F0000FD593060DD52046BDE8F84000F0AEBDEE
:101600002046FFF78DFFF8BD2046FFF789FF656490
:10161000F8BD266B2023012E7DD1C6067BD5D606CC
:1016200079D508684868009048694FF0020640067E
:1016300041D5E16B086840680004000CE8D0A28D39
:101640008242E5D9E085C869B0F5807F2DD0206859
:101650000C3050E8001F21F4807140E80012002A8D
:10166000F5D12068143050E8001F21F0010140E856
:101670000012002AF5D12068143050E8001F21F034
:10168000400140E80012002AF5D184F84230256379
:1016900020680C3050E8001F21F0100140E80012D3
:1016A000002AF5D1E06BFEF71CFF6663A08DE18D8B
:1016B000401A81B22AE0A08DE18D401A81B2E08DFE
:1016C0000028A5D00029A3D022680C3252E8000FD0
:1016D00020F4907042E80007002FF5D12068143004
:1016E00050E8002F22F0010240E80027002FF5D13A
:1016F00084F84230256320680C3050E8002F22F037
:10170000100240E80023002BF5D166632046FFF766
:10171000CEFEF8BDFFE705062BD5150629D594F8B2
:1017200041002128F5D1A068B0F5805F01D1206982
:10173000B0B1206A411C2162216800784860E08CC9
:10174000401E0004000CE084E3D12068C16821F051
:101750008001C1602068C16841F04001C160D8E7E4
:10176000206A0088C0F308004860206A801C20625C
:10177000E5E74006CDD55006CBD5CA68204622F015
:101780004002CA6084F8413000F0E8F8C1E7000088
:10179000A91F000870B5040004D094F8410000258A
:1017A00010B106E0012070BD84F84050204600F0E2
:1017B00023F8242084F841002068C16821F40051F6
:1017C000C160204600F02CFD2068016921F49041A1
:1017D00001612068416921F02A0141612068C168E6
:1017E00041F40051C1606564202084F8410084F810
:1017F00042006563002070BD2DE9F04186B00646C9
:1018000014216846FEF7A7FD3049306888425AD156
:101810002F480024016841F010010160006800F0C9
:10182000100005902A481438016841F00101016058
:101830000068694600F0010005904FF4C060009018
:101840000220CDE9010403200390072004902148E1
:10185000FFF72AF8214D20484FF000672860C5E9BE
:1018600001744FF48068C5E9034880156C61C5E9CF
:1018700006402C6228466C62FEF762FF08B1FEF754
:101880002EFEF563AE63154D134860357830E5E8FC
:1018900002074020A5E81101104845F814496030BE
:1018A000AC61EC612C626C62FEF74AFF08B1FEF796
:1018B00016FEB563002211462520AE63FFF760F9DE
:1018C0002520FFF74FF906B0BDE8F0810010014078
:1018D000443802400000024040640240BC00002046
:1018E0007047704770B5044690F84100202801D039
:1018F000022070BD49B342B32162A284E284002079
:101900006064212384F84130A56B114BEB63A56B18
:10191000104B2B64A56B104BEB64A36B186525680B
:1019200013462A1DA06BFEF775FF21686FF040007B
:1019300008602068143050E8001F41F0800140E842
:101940000012002AF5D1002070BD012070BD0000FA
:10195000A7200008E9200008B91F00087047704759
:10196000FEE7000070B50446002240210748FFF75B
:1019700093F8064D202018352860200A00F0ACFAB4
:10198000E0B200F0A9FA4020286070BD00040240D7
:1019900010B500F00DF9112000F05EF97820FEF787
:1019A00071FFB12000F058F9012000F041F92C201E
:1019B00000F03EF92D2000F03BF9B22000F04CF988
:1019C000012000F035F92C2000F032F92D2000F034
:1019D0002FF9B32000F040F9012000F029F92C2064
:1019E00000F026F92D2000F023F9012000F020F965
:1019F0002C2000F01DF92D2000F01AF9B42000F081
:101A00002BF9072000F014F9C02000F025F9A220DE
:101A100000F00EF9022000F00BF9842000F008F924
:101A2000C12000F019F9C52000F002F9C22000F031
:101A300013F90A2000F0FCF8002000F0F9F8C320A8
:101A400000F00AF98A2000F0F3F82A2000F0F0F8FC
:101A5000C42000F001F98A2000F0EAF8EE2000F03E
:101A6000E7F8C52000F0F8F80E2000F0E1F8362085
:101A700000F0F2F8C02000F0DBF8E02000F0ECF815
:101A80000F2000F0D5F81A2000F0D2F80F2000F057
:101A9000CFF8182000F0CCF82F2000F0C9F828204B
:101AA00000F0C6F8202000F0C3F8222000F0C0F8B3
:101AB0001F2000F0BDF81B2000F0BAF8232000F032
:101AC000B7F8372000F0B4F8002000F0B1F8072094
:101AD00000F0AEF8022000F0ABF8102000F0A8F8FB
:101AE000E12000F0B9F80F2000F0A2F81B2000F070
:101AF0009FF80F2000F09CF8172000F099F8332091
:101B000000F096F82C2000F093F8292000F090F8CF
:101B10002E2000F08DF8302000F08AF8302000F000
:101B200087F8392000F084F83F2000F081F8002089
:101B300000F07EF8072000F07BF8032000F078F832
:101B4000102000F075F82A2000F086F8002000F040
:101B50006FF8002000F06CF8002000F069F87F209A
:101B600000F066F82B2000F077F8002000F060F815
:101B7000002000F05DF8002000F05AF89F2000F0EF
:101B800057F8F02000F068F8012000F051F8F62036
:101B900000F062F8002000F04BF83A2000F05CF80A
:101BA000052000F045F8BDE81040292000F054B8A9
:101BB00010B5002210210748FEF76EFF6420FEF7E3
:101BC00061FE0449102018310860BDE81040322041
:101BD000FEF758BE000402402DE9F04107461C46BE
:101BE00015460E462A2000F037F8002000F020F8B5
:101BF000F8B200F01DF8002000F01AF8AD1CE8B2B1
:101C000000F016F82B2000F027F8002000F010F864
:101C1000F0B200F00DF8002000F00AF8641CE0B209
:101C200000F006F8BDE8F0412C2000F015B80000E7
:101C300070B50546002240210648FEF72DFF054CF1
:101C4000202018342060284600F046F9402020600B
:101C500070BD00000004024070B50A4C0546002229
:101C600040212046FEF718FF002220212046FEF7E3
:101C700013FF284600F030F902494020183108606F
:101C800070BD0000000402400D4808B5016841F431
:101C9000800101600068002200F48000009011467D
:101CA0003A20FEF76DFF3A20FEF75CFF0022114656
:101CB0004620FEF765FFBDE808404620FEF752BF0C
:101CC0003038024010B586B014216846FEF743FB59
:101CD0001548016841F080010160016801F0800150
:101CE0000591016841F001010160016801F0010105
:101CF0000591016841F00201016000680B4C00F0A1
:101D000002000590012278212046FEF7C5FE7820CA
:101D10000121CDE900010220CDE9021069462046EB
:101D2000FEF7C2FD06B010BD30380240000402408C
:101D30000F4810B50D4901604FF4827141600021D8
:101D40008160C1604FF400720161C0E90512C16198
:101D50000162416281620A21C162FFF7E3F9002852
:101D600003D0BDE81040FEF7BABB10BD0030014003
:101D70001C0000200C4810B50A4901604FF4E13105
:101D80004160002181600C22C160C0E904128161C0
:101D9000C161FFF7FFFC002803D0BDE81040FEF74B
:101DA0009EBB10BD0010014074000020FEE7FEE75E
:101DB00070470000F8B515460E460B4600920446E3
:101DC0000122022100F02CF8A0B913481349006841
:101DD000B0FBF1F04FF47A71484300906068B0F5C1
:101DE000827F0DD13346002280212046009500F0ED
:101DF00017F870B1606D40F0200060650320F8BDF9
:101E0000009830B1401E009020688068C0430006F2
:101E1000F6D50020F8BD00001800002000366E0145
:101E20002DE9F8431E46914688460446089DFEF774
:101E300039FE401B351AFEF735FE07462548006877
:101E4000C0F3CB30684338E0701C37D0FEF72AFE71
:101E5000C01BA84203D215B1009860B32CE02068E3
:101E6000416821F0E00141606068B0F5827F0BD1EC
:101E7000A068B0F5004F02D0B0F5806F04D12068A3
:101E8000016821F040010160A06AB0F5005F09D14E
:101E90002068016821F4005101602068016841F464
:101EA00000510160012084F85100002084F85000A6
:101EB0000320BDE8F8830025401E0090206881685B
:101EC00038EA010004D000214945BDD10020F0E7E7
:101ED0000121F9E71800002001B582B064200090CC
:101EE0000123034A02A90348FFF7AEF90EBD000023
:101EF000080000201C0000207047FEF7D9BD00003C
:101F000030B593B030216846FEF725FA14210CA8AD
:101F1000FEF721FA1E480025016841F0805101605A
:101F2000006800F0805011901A48016841F4804127
:101F300001600068022400F48040119001200090AC
:101F4000000401908001CDE90640082008904FF47C
:101F5000A870CDE9090404200B906846FEF72CFF19
:101F600008B172B6FEE70CA90F2081E831004FF4EA
:101F7000A0500F904FF48050109005210CA8FEF750
:101F800031FE002801D072B6FEE713B030BD00006C
:101F900040380240007000400248016841F470017E
:101FA0000160704788ED00E010B5806B0021C185AD
:101FB000C184FFF7B5FA10BD70B5846B2068406925
:101FC00094F84110C0F3C0100025212904D118B1A4
:101FD000E584204600F0B4F82068406994F8421087
:101FE000C0F38010222904D118B1E585204600F005
:101FF00080F8606C40F0100060642046FFF790FAB3
:1020000070BD10B50146806B096809684FF0000289
:10201000C9052ED4C28501680C3151E8003F23F474
:10202000807341E80034002CF5D10168143151E887
:10203000003F23F0010341E80034002CF5D1016892
:10204000143151E8003F23F0400341E80034002CF4
:10205000F5D1202180F84210016B012909D10168D6
:102060000C3151E8003F23F0100341E80034002C0C
:10207000F5D14263016B012902D0FFF731FC10BD9D
:10208000818DFFF714FA10BD10B5806B01214163FB
:10209000016B012902D0FFF724FC10BD818D490896
:1020A000FFF705FA10BD10B50146806B0968096895
:1020B000C90516D40021C1840168143151E8002FEC
:1020C00022F0800241E80023002BF5D101680C3199
:1020D00051E8002F42F0400241E80023002BF5D1E7
:1020E00010BDFFF73BFC10BD10B5806BFFF737FC50
:1020F00010BD01680C3151E8002F22F4907241E8C4
:102100000023002BF5D10168143151E8002F22F093
:10211000010241E80023002BF5D1016B012909D10F
:1021200001680C3151E8002F22F0100241E8002331
:10213000002BF5D1202180F8421000210163704767
:1021400001680C3151E8002F22F0C00241E8002361
:10215000002BF5D1202180F84110704708B590F888
:102160004210222901D0022008BD82684FF480531A
:102170009A4201D1016921B1816A9A421BD04AB1C8
:102180000AE00268816A5268C2F308020A80816A22
:10219000891C08E0026972B10268526802F07F028D
:1021A0000A70816A491C8162C18D491E0904090CAB
:1021B000C18503D01BE002685268F1E70168CA6874
:1021C00022F02002CA600168CA6822F48072CA60E4
:1021D00001684A6922F001024A61202180F8421018
:1021E00000214163026B012A03D0FFF779FB002035
:1021F00008BD016301680C3151E8002F22F0100284
:1022000041E80023002BF5D101680A68D20602D507
:102210000A6849680091818DFFF749F9E7E70000F6
:1022200070B5044600680169E26821F44051114329
:1022300001612169A068E2690843616911430843AB
:102240002168CA6849F20C639A430243CA60206855
:102250004169A26921F4407111434161314920680B
:10226000884202D03049884202D1FEF765FD01E084
:10227000FEF752FDE2690023192164253226B2F5EA
:10228000004F626828D0A0FB0101930F9200FDF778
:10229000EBFF0146B0FBF5F06FF01802504301EB85
:1022A000800006EB0010B0FBF5F000F0F002B1FB8F
:1022B000F5F002EB0012B1FBF5F06FF01803584394
:1022C00001EB800006EB0010B0FBF5F000F00F0012
:1022D00021681044886070BDA0FB010192185B4129
:1022E000FDF7C2FF0146B0FBF5F00201B1FBF5F0CE
:1022F0006FF01803584301EB800006EBC000B0FB01
:10230000F5F000F0F80002EB4002B1FBF5F05843A5
:1023100001EB800006EBC000B0FBF5F000F0070019
:10232000D6E70000001001400014014038B581627A
:1023300004468285002013466064222284F84220ED
:10234000E56B1B4AEA63E56B1A4A2A64E56B1A4A95
:10235000EA64E26B10650A462168E06B091DFEF72E
:1023600059FA2068016840680090206948B12068E7
:102370000C3050E8001F41F4807140E80012002A40
:10238000F5D12068143050E8001F41F0010140E809
:102390000012002AF5D12068143050E8001F41F0E7
:1023A000400140E80012002AF5D1002038BD0000AD
:1023B0000320000889200008B91F000838B512481A
:1023C00000680168114CC943C9060DD40168406812
:1023D00000900D48FFF76CF820684068C0F58071E8
:1023E0000B484160012101600748FFF79BF84FF45B
:1023F000807208490448FFF733F82068016821F02B
:102400000801016038BD000074000020BC000020FD
:10241000000000207C010020FEE70907090E0028CB
:1024200004DB00F1E02080F80014704700F00F009A
:1024300000F1E02080F8141D70470000FEF740FB1B
:10244000FFF75EFDFFF73EFCFFF71EFCFFF792FC77
:10245000FFF76EFC4FF4807210491148FFF700F847
:1024600010480068016821F008010160FFF790FA48
:102470000D4C0E4E0025206801280BD10C48FEF7AC
:102480008BF80128FAD13088044982B20448FFF75A
:1024900029FA2560074800F00FF8ECE77C010020DE
:1024A00074000020BC000020000000200400002078
:1024B0001C0100200625000870B50F4905460820BC
:1024C00008609F23772200210220FFF785FB00246C
:1024D0004FF4964605EB440015F81410407841EA95
:1024E0000020FFF73FFA641CB442F3DBBDE8704004
:1024F0003220FEF7C7B90000180402404FF04070C8
:10250000E1EE100A7047775277527752775276523F
:102510003B6B5A83BA9B758ADBABFDA37D5B1A5379
:102520003D531E4B1E431C4B1E4B1D431D431D4361
:102530001E4B1D431E431D3B1D3B1D3B1D3B1D3BB9
:102540001D3B1D3B1D3B1D3B1D3B1D3B1D3B1D3BCB
:102550001D3B1D3B1D3B1D3B1D3B1D3B1D3B1D3BBB
:102560001D3B1D3B1D3B1D3B1D3B1D3B1D3B1D3BAB
:102570001D3B1D3B1D3B1D3B1D3B1D3B1D3B1D3B9B
:102580001D3B1D3B1D3B1D3B1D3B1D3B1D3B1D3B8B
:102590001D3B1D3B1D3B1D3B1D3B1D3B1D3B1D3B7B
:1025A0001D3B1D3B1D3B1D3B1D3B1D3B1D3B1D3B6B
:1025B0001D3B1D3B1D3B1D3B1D3B1D3B1D3B1D3B5B
:1025C0001D3B1D3B1D3B1D3B1D3B1D3B1D3B1D3B4B
:1025D0001D3B1D3B1D3B1D3B1D3B1D3B1D3B1D3B3B
:1025E0001D3B1D3B1D3B1D3B1D3B1D3B1D3B1D3B2B
:1025F0001D3B1D3B1D3B76527652765277527652EA
:102600007652775239831BD4DB9B1A53DA42DA4273
:102610001D3B1D3B1D3B1D3B1D3B1D3B1E4B1D43E1
:102620001E4B1E431E431D3B1D3B1D3B1D3B1D3BC7
:102630001D3B1D3B1D3B1D3B1D3B1D3B1E4B1D3BC9
:102640001D3B1D3B1D3B1D3B1D3B1D3B1D3B1D3BCA
:102650001D3B1D3B1D3B1D3B1E4B1D3B1D3B1D3BA9
:102660001D3B1D3B1D3B1D3B1D3B1D3B1D3B1D3BAA
:102670001D3B1D3B1E4B1D3B1D3B1D3B1D3B1D3B89
:102680001D3B1D3B1D3B1D3B1D3B1D3B1D3B1D3B8A
:102690001D3B1D3B1D3B1D3B1D3B1D3B1D3B1D3B7A
:1026A0001D3B1D3B1D3B1D3B1D3B1D3B1D3B1D3B6A
:1026B0001D3B1D3B1D3B1D3B1D3B1D3B1D3B1D3B5A
:1026C0001D3B1D3B1D3B1D3B1D3B1D3B1D3B1D3B4A
:1026D0001D3B1D3B1D3B1D3B1D3B1D3B1D3B1D3B3A
:1026E0003E4B1D3B1D3B76527652775276527652C8
:1026F0007752765273627BD47A8BDA42DA42DA42CC
:10270000BB93597377521D3B1D3B1D3B1D3B1D3B2E
:102710001D3B1D3B1D3B1D3B1D3B1D3B1D3B1D3BF9
:102720001D3B1D3B1D3B1D3B1D3B1D3B1D3B1D3BE9
:102730001D3B1D3B1D431D3B1D3B1D3B1D3B1D3BD1
:102740001D3B1D3B1D3B1D3B1D3B1D3B1D3B1D3BC9
:102750001D3B1D3B1D3B1D3B1D3B1D3B1D3B1D3BB9
:102760001D3B1D3B1D3B1D3B1D3B1D3B1D3B1D3BA9
:102770001D3B1D3B1D3B1D3B1D3B1D3B1D3B1D3B99
:102780001D3B1D3B1D3B1D3B1D3B1D3B1D3B1D3B89
:102790001D3B1D3B1D3B1D3B1D3B1D3B1D3B1D3B79
:1027A0001D3B1D3B1D3B1D3B1D3B1D3B1D3B1D3B69
:1027B0001D3B1D3B1D3B1D3B1D3B1D3B1D3B1D3B59
:1027C0001D3B1D3B1D3B1D3B1D3B1D3B1D3B1D3B49
:1027D0001D3B1D3B1D3B7652765277527652775207
:1027E000575A575AB652B99BDB9BDF639383BF7C22
:1027F0003CBC58CCDEBCF65A1E4B1D431E4B1E4340
:102800001E4B1D431E4B1E431D431D3B1D3B1D3BCD
:102810001D3B1D3B1D3B1D3B1D3B1D3B1D3B1D3BF8
:102820001D3B3D53D952DF631A531D3B1D3B1D3BDE
:102830001D3B1D3B1D3B1D3B1D3B1D3B1D3B1D3BD8
:102840001D3B1D3B1D3B1D3B1D3B1D3B1D3B1D3BC8
:102850001D3B1D3B1D3B1D3B1D3B1D3B1D3B1D3BB8
:102860001D3B1D3B1D3B1D3B1D3B1D3B1D3B1D3BA8
:102870001D3B1D3B1D3B1D3B1D3B1D3B1D3B1D3B98
:102880001D3B1D3B1D3B1D3B1D3B1D3B1D3B1D3B88
:102890001D3B1D3B1D3B1D3B1D3B1D3B1E4B1D3B67
:1028A0001D3B1D3B1D3B1D3B1D3B1D3B1D3B1D3B68
:1028B0001D3B1D3B1D3B1D3B1D3B1D3B1D3B1D3B58
:1028C0001D3B1D431E4B7652775276527652564A26
:1028D000575A7652765277527652775277527652CC
:1028E000F96A5A831AB4BAE45C9CD9521E4B1C4B49
:1028F0001E4B1D431D431D431E4B1E431D3B1D3BD5
:102900001D3B1D3B1D3B1D3BDA427D83F96AD952BD
:102910001D3B1D43DA42DF631D431D3B1D3B1D3B39
:102920001D3B1D3B1D3B1D3B1D3B1D3B1D3B1D3BE7
:102930001E4B1D3B1D3B1D3B1D3B1D3B1D3B1D3BC6
:102940001D3B1D3B1D3B1D3B1D3B1D3B1D3B1D3BC7
:102950001D3B1D3B1D3B1D3B1D3B1D3B1D3B1D3BB7
:102960001D3B1D3B1D3B1D3B1D3B1D3B1D3B1D3BA7
:102970001D3B1D3B1D3B1D3B1D3B1D3B1D3B1D3B97
:102980001D3B1D3B1D3B1D3B1D3B1D3B1D3B1D3B87
:102990001D3B1D3B1D3B1D3B1D3B1D3B1D3B1D3B77
:1029A0001D3B1D3B1D3B1D3B1D3BDA42DA42DA421B
:1029B000DA421C4B1E4B7652765277527652775241
:1029C00077527652775277527752765A765A7752B2
:1029D000765A765A78735BC47BD418631D433E4B9A
:1029E0001E431E431E4B1D431E431E431D431E43D9
:1029F0001D3B1D3B1D3B1D3BD9521BAC5C9C5C9C95
:102A00001A531D3BDA42DA421D3B1D3B1D3B1D3B69
:102A10001D3B1D3B1D3B1D3B1D3B1D3B1D3B1D3BF6
:102A20001D3B1D3B1D3B1D3B1D3B1D3B1D3B1D3BE6
:102A30001D3B1D3B1D3B1D3B1D3B1D3B1D3B1D3BD6
:102A40001D3B1D3B1D3B1D3B1D3B1D3B1D3B1D3BC6
:102A50001D3B1D3B1D3B1D3B1D3B1E4B1D3B1D3BA5
:102A60001D3B1D3B1D3B1D3B1D3B1D3B1D3B1D3BA6
:102A70001D3B1D3B1D3B1D3B1D3B1D3B1D3B1D3B96
:102A80001D3B1D3B1D3B1D3B1D3B1D3B1D3B1D3B86
:102A90001D3B1D3B1D3B1D43DA42DA42DA42DA425E
:102AA000DA42DA421D4376527652775276527752A4
:102AB00077527652765A775276527652564A7752F3
:102AC000B6527752B8627A8BDEBCB6523D531E4383
:102AD0001D3B1D431D431E4B1D431E4B1C4B1E4BDC
:102AE0001D431D433E4B1D43DA423A733F8C5973DD
:102AF0001E431E431E431D3B1D3B1E431D3B1D3BF2
:102B00001D3B1D3B1D3B1D3B1D3B1D3B1D3B1D3B05
:102B10001D3B1D3B1D3B1D3B1D3B1D3B1D3B1D3BF5
:102B20001D3B1D3B1D3B1D3B1D3B1D3B1D3B1D3BE5
:102B30001D3B1D3B1D3B1D3B1D3B1D3B1D3B1D3BD5
:102B40001D3B1D3B1D3B1D3B1D3B1D3B1D3B1D3BC5
:102B50001D3B1D3B1D3B1D3B1D3B1D3B1D3B1D3BB5
:102B60001D3B1D3B1D3B1D3B1D3B1D3B1D3B1D3BA5
:102B70001D3B1C4B1E4B1D431D431E4B1D431E4343
:102B80001E431D431E43DA42D952D85AD952D95254
:102B9000DA42DA427D5B765276527752765277523B
:102BA00077527652765A765A7752765A765A765ABB
:102BB000765A575AB8627A8B1AB458CC777B186316
:102BC0001E431E431D431D431D431D43DA42DA428B
:102BD000B862D9521C4BDA421E431A53DA42DA4227
:102BE0001D3B1D431D431E431E431D3B1D3B1D3B03
:102BF0001D3B1D3B1D3B1D3B1D431E431E431D3BFB
:102C00001D3B1E431D3B1E431D3B1D3B1E431D3BE9
:102C10001E431D3B1E431E431E431D3B1D3B1E43C7
:102C20001D3B1E431E431E431E431D3B1D3B1E43B7
:102C30001D3B1E431E431E4B1D3B1E431E431D3B9F
:102C40001E431E431E431D3B1E431D431D3B1D3B98
:102C50001D3B1D3B1D3B1D3B1D3B1D3B1D3B1D3BB4
:102C60001D3B1D431C4BDA421D431E4B1D431E439F
:102C70001E431D431C4B1D3BD95277527752D952EC
:102C8000DA421C4BDA4276527652775276527752BB
:102C900077527652765A765A77527752765A765AD1
:102CA000B862B862986ABB9B5BC458CC58CCB65229
:102CB0001D3BD952777B3F8C1C4BDA42DA42D9520A
:102CC000D85AF65A1863D9521A531D433D533E4BF6
:102CD0001E431E431D3B1D3B1E431D3B1E431E4307
:102CE0001D3B1D3B1D3B1D3B1D3B1D3B1E4B1D430B
:102CF0001E431D431D431E431E431D431E431D3BD8
:102D00001E431E431E431D3B1D3B1E431D3B1E43D6
:102D10001E431D3B1D3B1D3B1D3B1D3B1D3B1E4BD9
:102D20001D431E4B1E431D3B1D3B1D3BDA421D3BFD
:102D30001D3B1D3B1D3B1E431E431D3B1D3B1E43B8
:102D40001D3B1E431E431D431E431D3B1E431D3B97
:102D50001D43DA42DA421D43DA42DA421C4B1D437C
:102D60003E4B1C4BDA42D9521863B6527752D952B5
:102D7000D952F65AD85A76527652775276527752BC
:102D800077527652765A765A7752765A76527752E8
:102D9000B862765A197B3CBC5BC458CC58CC777B64
:102DA000DA427A8B5BC45C9C7D5B1D3B1D431A53EE
:102DB000D952DA423C6B9E731D431D431D431D4394
:102DC0001D431D431E431D3B1D3BDA421D431E4355
:102DD0001E431D43DA427D5B3E4B1E437D5B3E4BF3
:102DE0001D431D3B1D3B1D3B1D3B1E431D3B1E4309
:102DF0001D43DA42DA425E531D431D431E431C4B02
:102E00005E531D437D5B7D5BDA421D431E431E43C3
:102E10001D431D431D431D3B1D3BDA421D3B1C4B07
:102E2000DA42DA421D3B1D3B1D3B1D3B1D3B1E4351
:102E30001D3B1D431D431D431E431D3B1D431D43A1
:102E40001D43DA421D3BDA42DA421C4BDA423E4B6A
:102E50001C4BDA427D5BD9521863B65277527652D8
:102E6000765AB652775277527752765A76527652CF
:102E700077527652775277527652765A765A765AF7
:102E8000765A7752D76ABB933CBCFDA35C9C5973BE
:102E90009E735C9C7A8B1A531D431E4B1D431E4B25
:102EA0001E431D3B1D431D431E431E431D431D3B2F
:102EB0001D3B1E43DF63DF63DA425F8D1D3B5F8D89
:102EC0001D3BBF7C5F8DBF7C7D5B1E4359731FEF35
:102ED000BF7C1D3B1D3B1E4B5FAEDA421C4BDF63CC
:102EE0001C4B1A535FAEBF7CDF631E43DF63BF7CA6
:102EF0005F8D1D3B1D3BDA42FF9D5F8D1D431E4BC9
:102F00001D431E43FF9DDA421D3BDA425FAED9529C
:102F1000BF7C7D5B1E431D3B1D3B1D3B1D3B1D3B85
:102F20001E431E431E431E431D431E431D3B1D43A4
:102F30001D43DA42DA42DA42DA42DA421D431C4BDE
:102F40001D43DA42DA42775276527752765AB652B7
:102F5000B6527752765277527652765276527652EF
:102F600077527652775277527652765A765A765A06
:102F7000765A7752D76AF872BB937873F8721863EF
:102F8000F872DBA33C7B1D431E4B1D431E431D43B8
:102F90001E431E431E431D3B1D3B1E4B1E431D4334
:102FA0001E431D435F8DF65A5F8D5F8DDF633E4B81
:102FB000DA425FAE7D5B7D5B1E43DA425FAEDA4292
:102FC0005F8DDF631E437D5B5FAEDF63DF635FAEFC
:102FD000DA42DA425F8DDF635E531E435FAEDF632A
:102FE0001D431D3BDA42FF9DDA42DF635F8D1D3BCF
:102FF0001E43BF7C5F8DDA421D3B1E435FAE5F8D7B
:103000007D5B1D3B1D3B1D3B1D3B1E431E431E4365
:103010001D3B1D3B1E431E431E4B1D431E431D43B4
:103020001E431D3B1D3B1D431C4B1D431C4BDA42E5
:10303000DA42DA42D952B652765AB652B652B6523D
:10304000B65277527652B652B652B652775276523E
:103050007652564A575A7652765A7652765A77525E
:10306000765AD85A765AD76A7A8BB66A366AF65A38
:10307000D76ADBA35A831E4B1E4B1D431E431D43C1
:103080003D531E4B1E4B1D431E431D431E431E4BF3
:103090001D431D43FF9D777B7D5BBF7C5F8D1D3B8B
:1030A0001E431FEF5F8DDF631D43DA425FAE1D3BA2
:1030B000777BBF7C1D3BBF7C1863FF9D5F8DBF7C12
:1030C000DA421D3BFF9DBF7C1D3B1E43DF635FAEAD
:1030D0007D5B3E4BDF635FAEDA4218635F8D1D3B65
:1030E0001D3B5F8D5F8DDA421D3B1D3B5F8D1FEFEA
:1030F000B6521D3B1D3B1D3B1D3B1D3B1D3B1D4358
:103100001E431E4B1D431E431D3B1D3B1E4B1D43BB
:103110001E4B1D3B1D43DA421D3BDA42DA42DA42C6
:103120001C4B1A53D952564AD85A76527752765275
:103130007752B6527752765276527652765276520D
:10314000765277527652775277527652765A765234
:10315000765AD85AB862765AD76A7A8B986A775272
:103160009D839D8B3C6B1D431D431D431E431E438E
:103170003D531E4B1E4B1E4B1D431E4B1E431D43FA
:103180001E433D531FEF777BDA425FAEDA425E5358
:103190005E531863DA421D3B1D3B7D5B1863DA42C8
:1031A0005FAE1D3B1D3B5FAEDA42FF9D5F8DF65A61
:1031B0001E435FAE344ADA421D3B1D431C4BBF7CAD
:1031C000BF7C1D435FAEBF7CDA425F8D1E437D5BDB
:1031D0005FAEBF7C5F8DDA421D3B1C4BFF9D7D5B6C
:1031E0001E4B1D431E4B1E431D3B1D3B1E431D3BE3
:1031F0001E431E431E431D431D431D431D3B1D43D4
:10320000DA421D43DA421C4BDA42DA42DA421C4B04
:10321000DA42DA42D9521863F65AD85AD85A765254
:10322000D85AD85AD85AD85A775276527652564ADD
:10323000575A7652765A7652765A765A7752D85AE2
:10324000B862B862B862B8625A83DB9B9D8B3B6BF5
:103250001A531A531C4B1D431D431E431D431D3B54
:103260001E431D3B1E4B1D431E4B1E431D3B1E4359
:103270001D433D53BF7C18631D43BF7C3D531E4B14
:10328000DF635F8DBF7C3E4B1E437D5B5F8D7D5B4F
:10329000DA421D3B1D43BF7C1D3BDA427D5B1D4373
:1032A0001E4B5F8D5F8DDF631D43DF635F8D1D3BB5
:1032B000DA421D43BF7C5F8DDF631D431D3B1D3B19
:1032C000DF631D43DF635E531D3BDF63DF63DA4271
:1032D0001D3B1D3B1E431D3B1D3B1E431E431E430A
:1032E0001E431E431D3B1D431E431E431D3B1D3BF2
:1032F000DA421E4B1C4BDA42DA421C4B1D43DA42C7
:10330000DA42DA42D952D952D952D952D952D95283
:10331000D952D952D9527652765277527652775242
:103320007752D85A76527652775276529D8B59738D
:10333000B862B8621863986A3C6B3C6B9D833C7BB7
:103340001E4B1D431E4B1E431D431E431D431D4369
:103350001D431E431E431D431E431D431D431E4369
:103360001D3B1D3B1E431E431E431D3B1E431D4371
:103370001E431C4B1E4B1D431E431D431D3BDA4287
:103380001D3B1D3B1D431C4B1E4B3D531E431E430B
:103390001E431A53DA427D5B7D5B1D3BDA421D3BC7
:1033A0001D3B1D3BDA421D3B1D431D3B1D3B1D3B91
:1033B0001D3B1D3B1D3B1D3B1D431E43DA421D3B78
:1033C0001D3B1E4B1D431D431E431E431D431E43F9
:1033D0001E4B1D431E431E4B1E431D3B1D431D43E1
:1033E0001D431D3B1D431C4B1E4B1D431C4BDA4212
:1033F0001D431C4B1D43D9521C4BDA42DA423A732F
:103400001A531A53DA4276527652775276527752DC
:103410007752986A765A765A765A765A7A8B7D839C
:10342000D952D85AD9523D53D9521A53D952197B2D
:103430001E4B1D431E4B1E433D531E431E431E4B3E
:103440001E431E4B1E4B1D431E4B1E431D3B1E4366
:103450001D431D431E4B1D431E431D431E431E4B58
:103460001D431D431E431D43DA421D3B1D3B1E43AE
:103470001E431E4B1E431E4B1E4BDF635E53DF631A
:10348000DF63BF7C5E53BF7CDF63DF631E431C4B87
:103490001E431D3B1D431D431D431D431D3B1D433B
:1034A0001D431D431E431E431D431E431D3B1E4320
:1034B0001D3B1E431E4B1E431E431D431D431E4307
:1034C0001E431E431E4B1E4B1D431D431E4B1D43DF
:1034D0001E431E4B1D431D431E4B1E431E43DA421B
:1034E0001E4B1D43DA421A53D9521A53DA42DA42BA
:1034F0001C4BDA42DA427652775276527652564A6C
:10350000575A7652D85A765A7752B862D9521A53C5
:103510001A531A53D9521E4B1C4BDA421A533D53BD
:103520003D531E4B1E4B3E531E431E431D3B1D3B36
:103530001E4B1D431D431E4B1E4B1D431E431E4B66
:103540001E431E4B1E4B1E4B1E4B1E431E431D4354
:103550001D431E431E431C4B1C4BD9521C4B1D4389
:103560001D431E431E431D431E431E4B1E431E434D
:103570001E431D3B1D3B1E43DA421D3B1D431D43A5
:103580001D431E431E431E431D3B1D435E531E43EE
:103590001E4B1E431D3B1D431D431D431D3B1D3B39
:1035A0001D431D431E4B1D431E4B1E431D3B1D4310
:1035B0005E531E431E4B1E4B1E4B1D431E431E4B94
:1035C0001D431D431E4B1E4B1E431E431C4B3E53AF
:1035D0001C4BDA42DA42DA42DA423D531C4BDA4201
:1035E000DA421A53DA4276527752765A765A564A65
:1035F000765277527752575AD85AD9521A531A5389
:103600001A53DA423D537D5B5D5B3D533E5B3D5358
:103610001E4B3D533E5B3E531E4B1E431E431D3B04
:103620001D3B1E4B1D431D431E4B1E4B1E4B1E437D
:103630001E431D3B1D3B1E4B1D431D431E4B1E4B7E
:103640001E4B1E431E431D43DA42DA42DA421C4B34
:103650001E431E4B1D431E431E4B1D431D431E4B4D
:10366000DF637D5BDF631E433E4B5E533D53DA42B7
:103670001D433D531E4B1D431E431E431D431E430E
:103680001D431D431E4B1E4B1E4B1D431D431D431F
:103690001E4B1E431D3B1D435E531E431E4B1E43CC
:1036A0001E431E4B1D431E431E4B1E431E4B1E4BF3
:1036B0001E4B1E4B1E4B1E4B1D433E531E431D43B4
:1036C0003E531C4BDA42DA42DA421C4BDA42DA420F
:1036D000DA421D431C4BB862765A7752D952B8620F
:1036E000B8625A831863DA42D9521C4B1C4B1D43F3
:1036F0003E4B3D533D533E5BDF63DF635E535E53A2
:103700003E533D533E5B3E533E4B1D3B1D431E4BC4
:103710001D431E431E4B1D431D431E4B1E4B1E4B84
:103720001E4B1E4B1E4B1D431E431E4B1D431D4374
:103730001E4B1E4B1E431E4B1E4B1E4BBF7C1D3B88
:103740005E531D433E531E4B1D431E431E4B1E43E3
:103750005E535E533E533E4B3D533D531E4B1E4BFB
:103760001E4B1D431E4B1E431D431E431D431D4345
:103770001E4B1E4B1E4B1D431D431D431E431E4B24
:103780001E431D3B1D435E531E431E4B1E431E43E3
:103790001E4B1E4B1E431D431E431E4B1D431D430C
:1037A0001E4B1E4B1E431D431E431D431D431D4305
:1037B0001E4B3E4B1D433E4B3D531A533C6B1C4B23
:1037C0001C4B1D431C4BB862765AD76A986AD85A6C
:1037D0005A83DB9BB99B7D5B3D533D533D533D532A
:1037E0003E5B3D531C4B5E53DF63DF63DF635E5321
:1037F0005E535E535E533E5B1D433D533E4B5E53F3
:103800001D433E531E4B3E4B1D3B1D431E4B1E4B4B
:103810003E4B1E431E431E4B1E431E4B1E4B1E4B58
:103820001E4B1E4B1E4B1E431D435E535E531E43D9
:103830003D533E5B1D433D533E4B1D431D431D43C6
:103840001E4B3D533E5B1D433D537D5B3E4B1D4335
:103850001D431E431E431E433E4B1E431E431D3B42
:103860001D3B1E4B1D431D431E4B1E4B1E4B1E433B
:103870001E431E431E4B1E431E4B1E4B1E4B1E4B18
:103880001E4B1E4B1E4B1D435E531E431E431E4BC1
:103890001E431E4B1E4B1E4B1E4B3D531E4B3D539A
:1038A0001E4B1E4B3E533E533E5B3D531C4B1C4B2D
:1038B0003D533D531A53D76AF65AB862986AD85A9C
:1038C000F65AF772B99B7A8B1C4B3E5B3D533D53C6
:1038D0003D533D533E5B3E5B5E53DF63DF63BF7C26
:1038E0005E535E535E535E535E533E533E4B1E4BE0
:1038F0003E4B3E4B3E4B5E533E4B3E531E4B1E4B90
:103900001E4B1D431D431E431E431D431E4B1E4B9A
:103910001D431E431E4B1E431E4B1E4B1E4B1E4B78
:103920001E4B5E535E533E533E4B1E4B3E4B1D4360
:103930003E4B5E535E533E533E4B1E4B3E4B3E4B07
:103940001D3B1E431D431E4B1D431E4B3E4B5E53F2
:103950007D5B1D3B1D431E4B1D431E4B1C4B3D53AE
:103960001D431D431E431E431D431E4B1E4B1E4342
:103970001E4B3E4B1E431D433E531E4B1D431E43D9
:103980001E4B5E531D433E531E4B3E4B1E4B1E4B68
:103990003E5B3E531E4B3E531D431C4B3D533D531C
:1039A0003D531C4B1C4BD76AF65AB862B862B862DA
:1039B000B862F7721AB45C9C3D531C4B1C4B1C4BF9
:1039C0001D431C4B3D535D5B9E73DF635E53DF63A2
:1039D0005E533D533E5B3E533E533D533E5B1D4362
:1039E0003D533E4B3E531E4B3E533E535E533E5360
:1039F0003E531E4B1E4B1E4B1D431E4B1D431E4371
:103A00001E4B1D431D431E4B1E4B1E4B1E4B1E4B80
:103A10001E4B1E4B1E4B1E4B1E4B3E533E533E53E6
:103A20003D533E5B1D433D533E4B1D433E4B5E535A
:103A30005E531D433E531E4B1E4B1E4B1E4B1E4BD7
:103A40001E4B1E4B3E4B3E4B1E4B1D435E531D3BC0
:103A50001D431E4B1E4B1E4B1E4B1E4B1E4B3E53FF
:103A60003E4B1E4B1D433E4B1E431E4B1E4B5E5397
:103A7000DF637D5B5E535E533D531E4B3E531E4BD7
:103A80003E533E533E5B3E531C4B3D531C4B3E5BF3
:103A90003D533E5B3D53D76A986AD76AB862B862B5
:103AA000B862B66A1AB45C9C1A531D437D5B1C4B0A
:103AB0003E5B3D533D633C6B5C9C9E73DF635E539A
:103AC0005E535E535E533D533E5B5E535E533E53C7
:103AD0005E533E533E533E533E531E4B3E533E5366
:103AE0003E533E533E533E4B5E533E4B3E533E4B46
:103AF0003E533E533E4B3E4B3E4B1E4B1E4B1E4BCE
:103B00001D431E4B1E4B1E4B3E4B3E4B3E4B1E431E
:103B10003E4B1D3B1D431E4B1E4B1E4B1E4B1E4B57
:103B20001E4B1E4B3E4B1D431D431E435E533E4BDF
:103B30005E533D531E4B3E533E4B1E4B5E535E53F6
:103B40003E4B3E533E4B3E533E4B5E533D531E4B0E
:103B50003E533E4B1E4B3E4B3E4B1E431E4B1E4B9D
:103B60003E4B5E533E4B3E533E4B3E533E4B3E4BD5
:103B70001E4B1E4B3E4B3E4B7D5B1C4B1E4B3E5328
:103B80003E531C4B3D53F872B862B862B862B862DB
:103B9000D85A78731AB498AB1A533D531C4B5D5BDB
:103BA0003D533E5B1C4B18639A939D8B7D5B5E6B14
:103BB000DF635E535E535E535E533E533E4B1E4B7C
:103BC0003E4B3E531E4B3E533E535E533E533E537D
:103BD0003E4B5E533D531E4B3E533E4B1E4B3E4BA6
:103BE0001E4B5E533D533E4B3E533E4B3E533E4B6E
:103BF0003E4B3E4B3E533E4B1E4B1D431E433E4BE6
:103C00001E4B1E4B3E4B3E4B3E4B3E4B5E531E43AC
:103C10003E4B3E533E4B3E4B3E4B3E4B3E4B5E532C
:103C20003D533E5B1D433D533E4B3E533E533E533F
:103C30005E533E533E533E533E533E4B3E535E53C4
:103C40003E533E533E533E533E533E4B3E4B5E53DC
:103C50003E4B3E533E4B3E533E4B3E4B3E4B3E5304
:103C60001E4B3E533E533E531C4B3E5B3D531D4348
:103C70001C4B3D533D53F872B862D76AD76AB652AF
:103C8000B6521863F8723A731A531D431A533D5BC8
:103C90003D533D533C6B1C4B3C6B5D6B5E6B5E6BF5
:103CA0005E6B3D533E5B3E533E533E533E531E4B75
:103CB0003E533E535E533E533E533E4B3E4B3E536C
:103CC0003E533E4B1E4B3E533E535E533E533E537C
:103CD0003E4B3E4B3E533E533E4B3E531E4B3E539C
:103CE0003E531E4B3E4B3E4B5E531D433E531E4BBD
:103CF0001E4B1E4B1E4B1E4B1E4B3D53DF637D5B0D
:103D00005E533E4B5E533D531E4B3E533E4B1E4B4C
:103D10003E4B1E4B3E533E535E533E533E535E530B
:103D20003E533E533E4B3E4B3E533E533E533D531C
:103D30001E4B1E4B5E533E533D533D533E533E532D
:103D40003E535E533E533E533E533E533E4B3E4BDB
:103D50003E4B3E533E533E533D533E5B3D533E5BD5
:103D60003D533E5B5E53D76AF65AF65AD76AD76A16
:103D7000F96AF96AF96AD9523D537D5B5D5B1C4B68
:103D80003D533D533D533D533D533C6B3D533D638C
:103D90003D5B5E535E533E5B5E535E533E533E530C
:103DA0003D537D5B5D5B3D5B1E4B3E533E533E533F
:103DB0003E533E533E4B3E533E533E533E4B3E538B
:103DC0003E533D531E4B5E533E533E533E533E5374
:103DD0003E4B3E533E533E533E533E4B1E4B3E4B9B
:103DE0003E4B1E4B3E533E535E533E53DF635E538A
:103DF0005E533E531E4B1E4B1E4B1D431E4B1E4B14
:103E00003E4B3E4B5E533E4B3E533E4B3E531E4B52
:103E10003E4B1E4B3E533E533D533D533E533E534C
:103E20003E533D531E4B3D533E533E533E533D5335
:103E30003D533D533E533E533E533D533D533D53FF
:103E40003D533E533E533E533D533D533D533E5BE6
:103E50003E5B3E5B3D53F7727A8BD85A1A53D95268
:103E6000D9521A533B6B1D433D5B3D533E5B5D5B3B
:103E70003D5B7D5B3D5B3E5B3E5B5E533D535E5316
:103E80003D533E5B5E533E533E533E533E5B5E535B
:103E90003D537D5B5D5B3D5B3E533E535E533E5306
:103EA0003E535E533E533E533E4B3E4B3E533E537A
:103EB0003E533D533E4B3D533E533D531E4B3E53AD
:103EC0003E535E533E533E533E4B3E4B3E533E535A
:103ED0003E4B3E533E533D533E533D53DF637D5B6C
:103EE0005E535E533E531E4B3E533E535E533E5312
:103EF0003E533E4B3E4B3E533E533E533D533E534B
:103F00003D533E533D533D531E4B1E4B5E533D535D
:103F10003E533D533D533D533D533D533E533E531E
:103F20003E533D533D533D533D537D5B5D5B1C4BC9
:103F30003E533E5B3E535E533E533E533E533E53D1
:103F40003E5B3D533E5BDB9BBB93F96A1A531A53AE
:103F50001D431D431C4B3D531D431C4B1D433C6BDC
:103F60003D533D537D5B3D533D5B3C6B5E533D5B41
:103F70003C6B5E533D5B3E5B5E533D5B3D5B3E5346
:103F80003D535E533D633E5B3E5B5E533D533D5B45
:103F90003E533E5B5E533D5B3D5B3E533E5B3E5B53
:103FA0003E533E5B3E533E533D533E533E5B3E537A
:103FB0001E4B3E533E535E533E533E533E4B3E5389
:103FC0005E533E533D533E533E5B3E537D5B5E53DB
:103FD0005E533E533E5B5E533D5B3D5B3E533E5BFB
:103FE0003E533D533E533E5B3E533E535E533E5322
:103FF0003E535E533E533E533E4B3E4B3E533E5329
:104000003E533D533E4B3D533E533D533D533D5335
:104010003D533E5B3E5B3D537D5B5D5B3D5B3E5395
:104020003E5B3E533E533E5B5E533D533E5B3D5BCA
:104030003E533E5B5E53BB93197BD9525D6B3D5340
:104040003D533D5B3C6B5D6B3C6B3C6B3C6B1C4B7D
:104050003D535E533D633E5B3D5B3D5B3C6B5E535E
:104060003D5B3E5B3E5B3D5B3D533E5B3C6B3A7371
:10407000F96A18633B6B5D5B5E533E5B5E535E5358
:104080003D533E5B3D5B3E533E5B3E5B3E533D538B
:104090003E533E5B3E533E535E533E5B5E533D5349
:1040A0003E5B3D5B3E533E5B3E5B3E533E5B5E5341
:1040B0003D5B3D5B3E533E5B3E535E535E6B5E53EA
:1040C0005E535E533E535E535E533E533E533D53E9
:1040D0003E533E5B3E5B5E533D5B3D5B3E533D5B13
:1040E0003E533E5B3E5B3E533E5B5E533D5B3D5B02
:1040F0003E533E5B1D433E4B3C6B5D6B3C6B3C6BF0
:104100003D5B3D535E533D633E5B3D5B3D5B3D53DD
:104110003D535E533D633E5B3D5B3D5B3D5B3D53CD
:104120005E533D633E5B197B3B6B3D633C6B3D6384
:104130003C6B3D533D631D433D5B3D535E535E53BE
:104140003D5B3E5B3E5B3D533D5B3D5B3C6B5E538D
:104150003D5B3E5B3E5B3D5B3D5B3D5B3C7B39835A
:10416000F872F8723B6B3D5B3C6B5E533D5B3E5BB4
:104170003D5B3D5B3D5B3D5B3E5B5E533D5B3D5B65
:104180003E533E5B3E533E5B3E5B3E533E5B5E5367
:104190003E5B5E533D5B3D5B3E533E5B3E533E5B51
:1041A0003E5B3E533E5B5E533E5B3E5B5E533D5328
:1041B0003E5B3D5B3E533E535E533E5B3E5B3E5B30
:1041C0003E5B3E5B3E5B5E533D533E5B3D5B3E5B19
:1041D0003E535E533E5B3E5B3E5B3E5B3E5B7D83A0
:1041E0003C7B3C7BFDA35CA3DBA33F8CF96A9E7305
:1041F0001D431D433D5B3E5B5E533D5B3D5B3E5B54
:104200003D5B7D5B3D5B3C6B5E533D5B3E5B3E5B84
:104210003D533D5B3C6B3C6B5D6B3D635D6B3D6358
:104220003D633D533D533D5B3D537D5B5D5B3C6B6F
:104230003D5B3D535E533D633E5B3D5B3D5B3D5BA4
:104240003D5B3E5B3D533C6B3C6B5D6BB89AF69AB5
:10425000F772F8723C6B3D5B3C6B3D5B3C6B5E53B5
:104260003D633E5B3D5B3D5B3D5B3D5B3E5B3D5B84
:104270009E733D533E5B3E533E533D633D633D5B0A
:104280005E533E5B3E5B3E5B5E533D533E5B3E5347
:104290003E5B3E535E533E5B3E5B3E5B3E5B3E5B46
:1042A0003E5B3E5B5E535E533D533E5B3D5B3E5328
:1042B0003E5B3D535E533E533E5B3E5B3D533C6B2A
:1042C0007D5B3C6B5D6B3D633C6B3A7359825CA3D9
:1042D000DBB2DABA7CDBDDC3DDC3FDA33B6B9D8BB8
:1042E0007D5B3D533C6B3C6B3D5B3D5B3D533C6BB1
:1042F0005E533D5B3E5B3E5B3D533D5B3D5B3D5BEB
:104300005D5B3D633C6B5E535D6B3D635D6B3D632D
:104310003C6B3D635D6B3D633C6B3D633C6B3D6360
:104320003C6B3D633C6B3C6B3D633D5B3C6B3D6379
:104330005D5B3D633D5B5E537D5B5A83578B578B63
:10434000197B3A733D633D5B3C6B3D635D5B3D5B5D
:104350005E535E533E535E6B5E6B3D635E6B3D63CF
:104360003D5B5E533E5B3E5B3E5B5D5B3E5B5E5337
:104370003D533E5B3D5B3E533E5B3E5B3E533E5B8F
:104380003E5B3E5B3E5B3E5B3E5B3D5B3C6B3C6B4A
:104390007D5B5E533D533C6B5E533D5B3E5B3E5BE2
:1043A0003D533D5B3D5B3D5B5D5B3D535E531C4B55
:1043B0001C4B59825982F8723C6B59827A927A92DC
:1043C000DBB21BCB1BCB7CDBDDC33CBCF7729D831C
:1043D0007D5B3D533D5B3C6B3D5B3D5B3E5B7D5B95
:1043E0003D533D5B5D5B3D635E6B7D5B5D5B3D6354
:1043F0005E6B3C6B7D835D735D6B3D635D6B5D6B85
:104400005E6B3C6B3C6B3D633D633D633D633D5385
:104410003D633C6B3D635D6B3D635D6B5D5B3D632D
:104420005E6B3D533D633D5B3C7B9A935493578B4E
:104430003C7B5D6B5D6B3D633D5B3C6B7D5B5D6BB6
:104440003D635E535E535E535E535E533C6B5E6BE7
:104450003D633D633D533D5B3C6B3D635D5B3D6355
:104460003E5B3D5B3C6B5E533D5B3E5B3E5B3D5B61
:104470003D5B3D5B3E5B3D5B3D5B3D633C6B3D5B64
:104480003D633C6B3D5B5E6B3D633C6B3D5B3D6305
:104490005D5B3D635E531A53DA423B6B3B6B1A53D1
:1044A0001A53187A1992187A3C6B5982187AD77174
:1044B00079AADABA9CBBDABA9CBB9CBB9D933C7BC5
:1044C0003F8CDF635E533D5B7D5B3D533C6B3C6BE0
:1044D0003D635D6B3D633D5B3C6B3D635D6B3D638D
:1044E0007D83FDA3FDA35E6B3C6B5D6B3D635D6BEC
:1044F0005D6B5D6B5D6B5E6B3C6B3C6B3D635D6BE5
:104500005D6B5D6B3D635D6B5D6B5D6B5D6B3D63BB
:104510003D633D633D635E533C7B98AB98AB95AB8D
:104520007A8B3C6B5E6B5E53DF633C6B3D633D633C
:104530003D635E535E535E6B3C6B5D5B3D635E5300
:104540003D5B3D5B5D5B5E533D5B5D5B3D633D5B4A
:104550005D5B3D635E533D5B3D5B5D5B3D633D533A
:104560003D635E6B3D635D6B5E533D535E533D63E8
:104570003E5B3D5B3D5B3D633D5B5E533D5B5D5B39
:104580003D633D5B5D5B564A3231D95250290F2164
:104590005339366A366A5892F881F899F899168232
:1045A000169ADABAB89AB89A9A93986A9D8B597300
:1045B00058833C7B3C6B3C6B3D635D6BBB9A3C7BA7
:1045C0005D6B5E6B5A837AAABB9A5CA3DBB2DDC3D8
:1045D0007D837D83DB9B5D6B5D6B5D6B5D6B5E6B7C
:1045E0003C6B3C6B3D633D635D6B5E6B5E6B3C6B3C
:1045F0005D5B5E6B5E6B5D6B3D633D5B3D635E6B08
:104600005D6B5D6B3D635E6B3C7B98AB16C416C403
:10461000B99B5A835E6B5E535E6B3D633D633C6B3F
:104620003D633C6B5E6B3D633D635D5B5D5B3D632A
:104630005E533D5B3D5B3D5B5D5B5D5B5D5B5D5B21
:104640003D635E533D5B3D5B5D5B3D635D5B5D5B21
:104650005D5B3D535E537D5B3D633D5B5E535D5BE8
:104660003D5B3C6B7D5B5D6B3D635E535E533D5BD1
:104670005D5B3D633D5BF541B13911310F210F2188
:104680000F210F21D35194699469B679169A9469D0
:1046900079AAB89A9469B04994697A92B89A9DD4E3
:1046A0001EE57AAB5CA3197BBB9A7A92BB9ABB9A44
:1046B00059827A92B89AD8C259D37CDB1BCBDABA2A
:1046C0009A937AAB9CBB5E6B3C6B5D5B5E6B5E6B87
:1046D0005D6B5E6B3C6B3C6B3D633D635D6B3D6353
:1046E0005E6B5D6B3D635D6B5D6B5D6B5D6B3D63D9
:1046F0005E6B5E6B3C6B5D6B3C7B98AB95AB95AB3F
:10470000DB9B9D835E735D5B3D635E6B5D5B5E53B8
:104710003D5B3D633D633C6B3D5B3D635D5B3D638A
:104720003D5B5E535E533D635D5B5D5B5D5B5D73F7
:104730005D5B5E535E6B5E6B5D5BDF635E533D5B3B
:104740003C6B5E533D5B3E5B3E5B3D633D5B3D5B77
:104750003C6B5E533D5B3E5B3D5B3D5B3D635D5B48
:104760005D5B3D635E6B0F215029B1390F210F2135
:10477000CD18EF28D351147AB269758AB679758A43
:104780007AABB89A5059EF28D4597A92B89ADEBCCD
:104790007AABB89ABB9A3C7BBB9ABB9ABB9ABB9A42
:1047A0005D6B7D83B89AD8C2D8C2D8C21DE4DABA8C
:1047B0009BA37AAB9CBB5E735E735E735E6B5D6B3B
:1047C0005D6B5E735E735E6B5D6B5D6B3D635E6BBD
:1047D0005D6B5E6B5E6B3C6B5D5B5E6B5E6B5D6BC6
:1047E0005E6B5E6B5E6B3C6B5E73F69A95AB95ABE6
:1047F000B99BBB9B9D837D5B3D633D633D633C6B90
:104800005E6B3D533D633D533D633C6B3D5B3D63A0
:104810005D5B3D633D5B5E6B5E6B5E6B5D6B5D6BBD
:104820003D635D6B5E6B3D635E6B3D533D633D5B26
:104830003D635D5B3D633D5B3D635E6B3D533D634F
:104840005E6B3D635D6B3D635E6B3C6B5D5B5E6BA6
:104850005E6B5D5B1A53F541B652344A50290F2105
:104860000F21CD1850292E412E41B2695883147A58
:10487000505979AA169A758ADAC239B2F899B89A53
:1048800058925892F8995CA3DAC2DBB27A923C7BD8
:104890003C6B197B169A169A169A169AB67979AACB
:1048A0007CDB169A58925E735E735E735E6B5E6B12
:1048B0005E735E735E735E735E6B5E6B5E735E6B88
:1048C0005E735E735E735E6B5E6B5E735E735E7370
:1048D0005E735E735E6B5E735D6B5E6B588395ABF0
:1048E0001AB416C4B99B9D835D5B5D5B5E6B3D63D3
:1048F0003C6B3D633C6B5E6B3D633D633D635D6B59
:104900005E6B3C6B3C6B5D6B5D6B5D6B3D635E6BCF
:104910005E6B5D735D5B3D635E6B3C6B5D5B5D6BB6
:104920003D635D6B5D5B3D533D635E6B3D635D6B06
:104930005E535E6B5E6B5E6B5D5B5D5B5E6B1A53C5
:104940003C6B7D5B32317752524A2D21B139344A6A
:10495000CD18CD18CD18CD180F21D57250595059FA
:10496000B66A924916825892B6795892B89AF899CE
:1049700058921682D77179AADBB2DBB2F881B66998
:10498000187A7AAAB6795892598239A277AA1682E9
:10499000758A9CBB7CDB5D735E735D735E739E7317
:1049A0005D735D735D739E735D735D735D735D7346
:1049B0005D6B5D6B5E735E735D6B5E6B5E735E7392
:1049C0005E735E735E735E735E735D6B3983B99BFA
:1049D0001AB416C4DBABB99B5E735E735E735E7311
:1049E0005E735D6B5E6B5E735E6B3C6B5D5B5E6BA3
:1049F0005E6B5D6B5E6B3D635E6B3D633D633D6314
:104A00003D633D633D635D5B5E6B5D6B5D6B5E6BEC
:104A10003C6B3C6B3D633D635D6B5E6B5D6B5D5BF7
:104A20003D633D633D633D633C6B5E6B1A531131E7
:104A30007752D952B139344A0F210F21B139502957
:104A4000CD18CD185029AE39CD18B049CC28EF2853
:104A5000EF28366A2E415449758AB89AD771589210
:104A6000F89958929469946979AA79AA75599249E2
:104A70007139D459366A5982169A169ADABA589206
:104A800079AADDC37CDB5D735E735D735E735D73FA
:104A90005D735E739E735D735D735D735E735D7353
:104AA0005E735E735E735E735E6B5D735E735D7388
:104AB0005E735D735D735D735D735E735E733C7B8C
:104AC00098AB16C4DBABDBAB9D839E735D6B5D6BFC
:104AD0003D635D6B5D6B5D6B5D6B3D635E6B5E6BE4
:104AE0005D6B5E6B5E6B5E6B5D6B5D6B3D635D6BAB
:104AF0005E6B3D635E6B3D635D6B5E6B5D6B5D5BD3
:104B00005E6B5E6B5D6B5E6B5E6B3D635E6B5E6B87
:104B10005E6B5D6B5D6B5E6B5E6B5D6B3B6B1131FA
:104B20000F212D21CD180F210F215029CD18CD187F
:104B3000CD18AC10CD18AC10CD18AC10AC100F21A6
:104B40005029B1397362D459B2699469D459113179
:104B50001039366AD45933415141F772344A5029D9
:104B600011310F21B1399249366A589279AA77AA40
:104B7000DAC2DAC277AA5D739E735D739D8B5D6B3B
:104B80009E735D739E735D735D735E735D735D7322
:104B90005D735E735D735E739E735D735D739E7311
:104BA0005D735D735D735D735D735E735E735D7383
:104BB0009A931AB41AB45BC49D935D735E735D6B74
:104BC0005E6B5D6B5D6B3D635D6B5E6B9E735D5B92
:104BD0005E6B3C6B5D5B5D6B3D635D6B5E6B3D6314
:104BE0005E6B3D635D6B5E6B5E6B3C6B5D5B5D6BDB
:104BF0003D635D6B5E6B3D635E6B3D635D6B5E6BEA
:104C00005E6B5D6B3D633C6B3D635E6B564AB139D9
:104C10004C29CD182D21344A5029CD18CD18AC106F
:104C2000CD18CD18CD18AC10AC106910AC100F21F8
:104C30000F210F211039D351D459D4590F210F21ED
:104C40000F211131366A74411039B66AB1395029D1
:104C50000F210F210F2110395449B26979AA77AA7F
:104C6000169A77AA1BCB7E7B5D737E7B5D737E7B02
:104C70007E7B7E7B5D737E7B5D737E7B7E7B7E7BBE
:104C80009E739E739E737E7B9E737E7B5D737E7B25
:104C90005D737E7B7E7B5E735E735E735E6B5E6B4D
:104CA0007D8398AB16C45BC4DB9B5E735E735D6BE8
:104CB0005E735E735D6B5E6B5E735E735E735E6B85
:104CC0005E6B5D6B5E6B5E6B5E6B3C6B5D5B5E6BD0
:104CD0005E6B5D6B5E6B5E6B3D635E6B5E6B5E6BB6
:104CE0005E6B5D6B5E6B5D6B5D6B3D635D6B5E6BA9
:104CF0003D635E6BD952B652AC10D952D85A0F21CF
:104D00000F21CD18CD18AC108A10AC106910AC1062
:104D1000EE20AC10AC10CD18CD18CD18CD180F2149
:104D2000CD18EC20CD18CD18CD18EE200F210F2175
:104D3000CD180F21EE20EF281039EE2050290F2139
:104D40000F212D210F21AC10103951415449169AD1
:104D5000F899169A169A7E7B5D737E7B5D737E7BD7
:104D60007E7B7E7B7E7B7E7B5D737E7B5D737E7BCD
:104D70007E7B7E7B9E737E7B7E7B5E737E7B7E7B7B
:104D80005E737E7B7E7B5E735E737E7B5D735E7324
:104D90003C7B9A931AB458CC5C9C5E735E735D6BDB
:104DA0005D6B5E735E735D6B5E6B5E735E735E7395
:104DB0005E6B5E735E6B5E6B5D6B5E6B5E6B5E739C
:104DC0005E735E735E6B5E6B5E735E735E735E736B
:104DD0005E735E6B5E733F8C9E737E7B5E6B5D6B02
:104DE0005E6B5E6B1A5311310F211D3B344A323119
:104DF000344ACD18AC10AC108A10AC10CD18AC10E1
:104E0000CD18AC10CD18CD18CD18CD18AC10CD18CC
:104E1000CD18CD18CD18AC10CD18EF280F210F21CB
:104E2000CD18CD18AC100F210F210F210F210F210C
:104E30005029344AB139EC20EC20EF28D45958924B
:104E4000169AF89994697E7B7E7B7E7B7E7B7E7B47
:104E50009D837E7B7E7B7E7B7E7B9D837E7B7E7B3C
:104E60007E7B7E7B7E7B7E7B9D837E7B7E7B3C7B95
:104E70007E7B7E7B7E7B7E7B7E7B7E7B5E737E7B92
:104E80007E7B7E7B1AB45BC49D935D735D735D6BAB
:104E90005D735D735D6B5E735E735E735E735E7395
:104EA0005E735E735E735E735E735E739E735E733A
:104EB0005E735E735E735E735E739E735E735E732A
:104EC0005E735E735E739E739E739E735E737752A2
:104ED000F96A1C4B18630F2132319E735029564AD0
:104EE00050292D21AC10CB18CD18AC10CD18AC101A
:104EF000AC10AB18AC10AC10CB18CD18CD18EE2000
:104F0000CD18EE20CD18AC10AC100F210F21EE20E3
:104F1000CD188A10AC10CD18B139CD180F215029F9
:104F2000B66A1039514112527362B04973625059D6
:104F30005059B679169A7E7B7E7B9D837E7B7E7BE5
:104F40007E7B7D837D837E7B7E7B9D837E7B7E7B64
:104F50007E7B7E7B9D839D837A8B7E7B9D833C7B4A
:104F60007E7B9D837D837E7B9D8B9D8B9D8B7D83B7
:104F70007D839D935BC4DEBC3F8C9D835D735D6BC5
:104F80005E735D735E735E735E739E735E735E735A
:104F90007E7B5D735D735E735D735E733F8C5D736B
:104FA0005D735D735E739E735D735D735D735D733F
:104FB0005E735D735D735D735D735E739E731131BC
:104FC0001131B139CD18CD180F210F213231EE201A
:104FD000CD18AC10AC10CB18AC10CB18AB18AC1073
:104FE000CD18CD18CD18AC10AC10CB18CB18AC1018
:104FF000AC10AC100F21CD18CD180F21CD18CD1845
:10500000CD186910D572F69AF7721252F69A147A80
:10501000B269D459B66A51415141B89A51413341AC
:10502000B679F899169A9D839D839D837D837D83B0
:105030007E7B7E7B9D837E7B7E7B7E7B7D839D8353
:105040007E7B7A8B7A8B7A8B9D839D837A8B7A8B0E
:10505000BB9BBB9BBB9BBB9BBB9BBB9BBB9BBB9BA0
:105060003F8CFDA39DD41AB4BB939D835D735D7388
:105070005D735D735E739E735D737E7B5D735D7345
:105080005D735E739E735D735D735D735D737E7B35
:105090007E7B7E7B7E7B7E7B5D737E7B7E7B7E7B71
:1050A0007E7B7E7B3C6B5D735D735D735D733B6B81
:1050B000344A2D210F216D31EE20CD18CD18AC10C2
:1050C000AC100F21AC10AC10CB18AB18AC10AC105E
:1050D000CD18AC10AC10AC10AC10CB18CB186910BC
:1050E0008A10CD180F210F21CD18CB18CD18AC1078
:1050F0000F21CD188A102E41526A2E41B269B26931
:10510000147A147A7AAB9469EF28B04950599249CD
:10511000147A9469B6797D837D837E7B9D8B7E7BBB
:105120009D8B7E7B7D833C7B7E7B7D833C7B9D83D7
:105130003C7B7A8B7A8B7A8B7A8B777B7A8BBB9B57
:10514000DBA3DBA3DB9BDB9BDB9BDB9BDBA3BB9BB7
:10515000BB933CBC9DD4DBABDB9B7E7B9D839D8363
:105160005D733C7B7E7B3C7B7E7B7E7B7E7B7E7B24
:105170007E7B5D737E7B7E7B7E7B7E7B7E7B5D73B9
:105180007E7B7E7B7E7B7E7B7E7B5D737E7B7E7B80
:105190007E7B5D733C7B5D735D737E7B7E7B9D83DD
:1051A000F96ACD180F21AC100F21AC10CD18CD1815
:1051B000CD18AC10AC10AC10CB18AB18AC10AC10B8
:1051C0000F210F21CD18AC10CD18AC10AC10AE399A
:1051D0008A10EE20CD180F21EE20CD188A10CD18A0
:1051E000EE20CD186910CC28B269B2690D31147A5D
:1051F000758AF69AF69AF69A946951415059758AC9
:1052000077AA168294697D837D837E7B7E7B9E73E5
:105210007D837E7B3C7B9D83197B197B197B3C7B4B
:105220005A835A835A837A8B7A8B777B7873B99BAC
:10523000DB9BDB9BDB9BDB9BDB9BDB9BBB93BB9B06
:10524000BB9B9DD49DD4FDA39A937D833C7B9D8382
:105250007E7B7E7B7E7B5D737E7B3C7B7E7B3C7B33
:105260005D737E7B7E7B5D737E7B7E7B5E735D7319
:105270007E7B7E7B7E7B5D737E7B7E7B7E7B5D73B8
:105280007E7B3C7B7E7B3C7B7E7B7E7B9D8B9D8B7C
:105290003A730F21CD18CD18CD18CD18AC10CD18FC
:1052A000AC10CD18AC10AC10AC10AC10AC10CD18CC
:1052B000AC100F21CD18CD18CD18CD18AC107873C7
:1052C0008A10AC10AB18CD18AC108A104708AC107F
:1052D0002D218A108A100F2150592E41AC10EF2831
:1052E000B66A7362F772588337BB2E412E41514123
:1052F000758A1682366A7D837D839D937E7B9D8B26
:105300007E7B3C7B3C7B3A733A73197B3A735A83BE
:105310003B6B197B3A735A837A8B7A8B7A8B7A8BB5
:10532000DB9BDB9BBA9BDB9BDB9BBB93BB9BBB9B56
:10533000DBABDEBC3CBCDB9BBA9B9D8B9D833C7B8B
:105340003C7B9D839D839D837E7B5D737E7B7E7B8B
:105350007E7B7E7B7E7B7E7B7E7B9D837E7B7E7B5E
:105360005D737E7B7E7B3C7B7E7B7E7B7E7B7E7BE0
:105370007E7B3C7B7E7B7E7B7E7B3B6B744177526E
:10538000F65AEE20CB18CC28AC108A108A10CD1813
:105390008A108A108A108A108A10AC10CB18CD1887
:1053A0000F21EE20AC10AC10CD18CD18CD18AC10DC
:1053B0002D21CD188A108A108A104C296910681086
:1053C0006810EC200F21CD18B0491039CD181039D4
:1053D0000D31EF2810395141578B924910392D2149
:1053E00051413341CC287D839D8B7E7B3C7B9D8BC3
:1053F0007D833C7B197B3A733B6B5A835A833B6BAF
:10540000197B3A73197BF8723A7358837A8B7A8BCB
:105410009A939A939A93BB93BB93BB93BB93BB9B77
:105420003CBCDDC3FDA3BA9BDBA3DB9B9D8B7A8BCE
:105430007D837D837E7B7E7B7E7B7E7B9D837E7B6F
:105440007E7B7E7B7D839D837E7B7E7B7E7B7E7B66
:105450007E7B7E7B7E7B9D837E7B9D839D839D83E8
:105460007E7B7E7B7E7B7E7B3C6B9D830F2111311F
:1054700053397139EE20CD188A10AC10CB18AB1807
:10548000691068108A10CB18AC10AC10CD18AC1095
:105490000F21AC10AB18CB18AC108A108A10AC10CE
:1054A00047088A106910CB186D317362AE3947080E
:1054B000EC20CA18AC108A108A182D21AB182E4186
:1054C0007362CC28CC28514110395029CC28736202
:1054D000B269B89A90719D8B9D8B9D8B7E7B3C7B36
:1054E0009D8B3C7B197B3A73197BF8723A73F96A8E
:1054F000F96A3A73F872F872398339837A8B7A8B46
:105500007A8B7A8BBB9BBA9BBB93BB9BBB9BBB9B96
:105510009DD43CBCFDA3BB9BDB9BDB9B7D83DB9BCA
:105520007D837D837E7B7E7B7E7B7E7B7E7B7E7BA5
:105530007E7B7E7B7E7B7D839D837E7B7E7B7E7B75
:105540007E7B9D837E7B7E7B7E7B7D839D837E7B3E
:105550009D8B7D837E7B7E7B9D83564A0F21D95216
:105560001863F65ACD18AC108A10CD18CD188A10D1
:105570008A108A108A10CB18CB18AC10AC108A1085
:10558000EE20CD18AC108A108A108A108A108A106A
:105590008A10AE39691047084C294708691068100D
:1055A0004708CA18AC1069106810AC108A10CB18E4
:1055B000AB18CD18AC10CD18B0495141B049D351FA
:1055C000D351B26916829D8B9D8B9D8B9D939D833C
:1055D0003C7B197B3A73197B3A73197BF872F96A31
:1055E000197BF872F96AF96A5973398358837A8B8F
:1055F0007A8B7A8B9A93DB9BBB939D93BB93FDA392
:10560000DEBCDDC3DBA3BB9BDB9BDB9BFDA37D8300
:105610009D8B9D8B9D8B7D837E7B7E7B9D8B9D8BD0
:105620009D8B7D839D8B9D8B7D837E7B7E7B7E7B17
:105630007E7B7E7B7E7B7E7B9D837E7B9D837E7B54
:105640009D8B9D8B9D8B9D8B3B6B3C6B11315029B2
:10565000B139EE20AB18AC10CD18AB18CD18AC108A
:105660008A1068106810CA18CB1869108A10CD18F3
:10567000EE20EE20CB18CB18AC10CD18524A691092
:10568000691068108A1047086810470847084708DB
:1056900068104C2969106910CC28EC20AC10AC10B3
:1056A000CB18EF281039514169106D31AC10CC285E
:1056B00010390D3192499D8B9D8B7D837D837D8338
:1056C0009D835A83F96A197B3A73197B3A73F8728E
:1056D0001863F96A197BF8725973597339837A8B95
:1056E00058837A8B7A8B7A8BBB9BBB939A93FDA35F
:1056F000DEBC5BC4BA9BBB9BDB9BDB9BBB939D93DC
:105700009D8B7E7B7D837E7B9D837E7B7D839D8B3E
:105710009D8B9D8B7D837E7B9D837E7B7E7B9D830E
:105720007E7B7E7B7E7B7D839D837E7B7E7B7E7B83
:105730009D8B7E7B9E739E73B8621131D351F54170
:10574000AC10CD18AB188A10AC10CD18AB18CD1812
:10575000CD1869106910691068104708470869106A
:105760008A10EE20AB18AC10AB188A10524A691898
:105770006810CA186910CB1889186D31470868106D
:105780004C2947082D21524A6D31CD18CC28D351D0
:10579000355A524A92497362EE202E418A10CB1834
:1057A0005029103951419D8B9D8B9D8B7D839D8B05
:1057B0009D833C7B197B3A733B6B5A833A73F96A3E
:1057C0005973F96A1863F96A3983398358837A8B74
:1057D00078737A8B7A8B7A8B9A939A939A93FDA3A8
:1057E0009DD43CBC9BA39D93BB9B9D93BB939D93DE
:1057F0009D837D837D839D937E7B7E7B7E7B7E7B75
:105800007E7B7E7B9D837E7B9D8B7E7B7D839D8B44
:105810007E7B7D839D8B7D837D837D837E7B7E7B75
:105820007D839D8B7D837E7B3A7350290F21CD181C
:105830008A10CD18AC10AC10CB18CB18CB18AC100C
:10584000CB18AC106810EC204708681047084708D0
:105850006810691868104C29EE20AB182D21524AA7
:10586000F37A4C29AE392E410D31AE394708681014
:10587000CF396910EC20CF39CD18CD186D310F21FB
:10588000B1395029F772B1396910B0498918CD186A
:105890000D310D31524A9D939D839D939D939D9310
:1058A0009A937A8B5A837A8B5A835A833A73F96A1A
:1058B000F96AF96AF872F872197B59733983787347
:1058C0007A8B7A8B7A8B58837A8B7A8BBB931CACCE
:1058D0009DD45BC4DBA3BB9BFDA39A937D83FDA3F7
:1058E0009D8B7E7B9D8B7E7B7E7B7E7B9D8B7E7B63
:1058F0007E7B9D8B9D8B7E7B7D839D8B9D8B7E7B1D
:105900007D837E7B9D839D8B7E7B9D8B7E7B7E7B43
:105910003C7B575ABB933B6BD76AD3515029AC1091
:105920008A108A10AC10AC10AB18CD18AC10CD1882
:105930008A10AC10CB18AC10CB18691869108A10FB
:10594000691068108A106910681068102D21CA1833
:10595000526AC940AE51736273628918470847089A
:10596000CF394708CD18AB18EE20CD181039AE3915
:105970005029EE20B139524AAB18F772D572CC28B3
:10598000CC28CD18CD189D939D839D939D837D83B9
:105990009D835A837A8B5A835A83197BF96A197BC0
:1059A000F96A197BF8725973197B39837A8B5A8398
:1059B0007A8B7A8B7A8B9A937A8BBB9BBB93DBAB7C
:1059C0009DD4DEBCDBA3BB9BDBA3BB9BBB9BBB9380
:1059D0009D8BBB939D937D839D939D939D8B9D8B71
:1059E0009D8B7D839D8B9D839D8B7E7B9D939D83D6
:1059F0007E7B9D839D8B9D8B9D8B7D839D8B9D83CE
:105A00009D8BAC1074410F21EF280F21EE20CD1893
:105A1000CD18CD18CB188A108A108A10EE20AC1041
:105A20008A108A108A10AC10AC10CB18CB188A10D0
:105A30000F212D210F21AC1068106810CA184708DB
:105A40002D214C296918EB28AE3947084708681002
:105A50004C29524AEE200F21B1397873EE20CD182F
:105A6000CB18CD18CF39B049AC10AE3947080D313D
:105A7000AC10CC28CD18197B3C7B197BF96A197BBB
:105A8000F872F96A197BF872F96AF96AF96AF872B8
:105A9000F96AF872F872197B197B39835A837A8B09
:105AA00058837A8B7A8B9A93BB9BBB9BBB9BDBAB5C
:105AB0009DD49DD49CBBDBABDBA3FDA3FDA39D9339
:105AC000DB9BBB9BDBA39BA3FDA39D93BB937D8330
:105AD0009D8B9D8B9D8B7D839D8B7D839D8B7E7B05
